{
  "address": "0x9013aae3594AE7EE365466a6f59DcA6DefF58684",
  "abi": [
    {
      "inputs": [
        {
          "internalType": "address",
          "name": "exampleExternalContractAddress",
          "type": "address"
        }
      ],
      "stateMutability": "nonpayable",
      "type": "constructor"
    },
    {
      "inputs": [],
      "name": "Staker_ContractNotExecuted",
      "type": "error"
    },
    {
      "inputs": [],
      "name": "Staker__AmountShouldBeMoreThanZero",
      "type": "error"
    },
    {
      "inputs": [],
      "name": "Staker__DeadlineNotPassed",
      "type": "error"
    },
    {
      "inputs": [],
      "name": "Staker__NobalancesTOWithdraw",
      "type": "error"
    },
    {
      "inputs": [],
      "name": "Staker__TranferFailed",
      "type": "error"
    },
    {
      "inputs": [],
      "name": "Staker__WithdrawFailed",
      "type": "error"
    },
    {
      "inputs": [],
      "name": "Staker__WithdrawNotAllowed",
      "type": "error"
    },
    {
      "inputs": [],
      "name": "Staker_contractNotCompleted",
      "type": "error"
    },
    {
      "anonymous": false,
      "inputs": [
        {
          "indexed": true,
          "internalType": "address",
          "name": "stakerAddress",
          "type": "address"
        },
        {
          "indexed": true,
          "internalType": "uint256",
          "name": "stakerAmount",
          "type": "uint256"
        }
      ],
      "name": "Stake",
      "type": "event"
    },
    {
      "inputs": [
        {
          "internalType": "address",
          "name": "",
          "type": "address"
        }
      ],
      "name": "balances",
      "outputs": [
        {
          "internalType": "uint256",
          "name": "",
          "type": "uint256"
        }
      ],
      "stateMutability": "view",
      "type": "function"
    },
    {
      "inputs": [],
      "name": "deadline",
      "outputs": [
        {
          "internalType": "uint256",
          "name": "",
          "type": "uint256"
        }
      ],
      "stateMutability": "view",
      "type": "function"
    },
    {
      "inputs": [],
      "name": "exampleExternalContract",
      "outputs": [
        {
          "internalType": "contract ExampleExternalContract",
          "name": "",
          "type": "address"
        }
      ],
      "stateMutability": "view",
      "type": "function"
    },
    {
      "inputs": [],
      "name": "execute",
      "outputs": [],
      "stateMutability": "nonpayable",
      "type": "function"
    },
    {
      "inputs": [],
      "name": "openForWithdraw",
      "outputs": [
        {
          "internalType": "bool",
          "name": "",
          "type": "bool"
        }
      ],
      "stateMutability": "view",
      "type": "function"
    },
    {
      "inputs": [],
      "name": "stake",
      "outputs": [],
      "stateMutability": "payable",
      "type": "function"
    },
    {
      "inputs": [],
      "name": "threshold",
      "outputs": [
        {
          "internalType": "uint256",
          "name": "",
          "type": "uint256"
        }
      ],
      "stateMutability": "view",
      "type": "function"
    },
    {
      "inputs": [],
      "name": "timeLeft",
      "outputs": [
        {
          "internalType": "uint256",
          "name": "",
          "type": "uint256"
        }
      ],
      "stateMutability": "view",
      "type": "function"
    },
    {
      "inputs": [],
      "name": "withdraw",
      "outputs": [],
      "stateMutability": "nonpayable",
      "type": "function"
    },
    {
      "stateMutability": "payable",
      "type": "receive"
    }
  ],
  "transactionHash": "0x9917453a04cffe07464ebf13c275fa39b06897347802586c4ed5a21bf097978f",
  "args": [
    "0x2C4B4580c8F782A87eCf3E04E9329fC86EE865A9"
  ],
  "numDeployments": 1,
  "solcInputHash": "34c8f3c700628aaece09cf6b4d7a37bc",
  "bytecode": "0x608060405234801561001057600080fd5b5060405161057838038061057883398101604081905261002f9161006a565b600080546001600160a01b0319166001600160a01b038316179055610057426203f480610098565b600255506003805460ff191690556100bc565b60006020828403121561007b578081fd5b81516001600160a01b0381168114610091578182fd5b9392505050565b600082198211156100b757634e487b7160e01b81526011600452602481fd5b500190565b6104ad806100cb6000396000f3fe60806040526004361061008a5760003560e01c80633ccfd60b116100595780633ccfd60b1461011357806342cde4e81461012857806361461954146101445780639876a643146101595780639f75f2271461018357600080fd5b80631300a6d1146100a057806327e235e3146100c857806329dcb0cf146100f55780633a4b66f11461010b57600080fd5b3661009b5761009934336101bb565b005b600080fd5b3480156100ac57600080fd5b506100b5610222565b6040519081526020015b60405180910390f35b3480156100d457600080fd5b506100b56100e3366004610404565b60016020526000908152604090205481565b34801561010157600080fd5b506100b560025481565b610099610246565b34801561011f57600080fd5b50610099610273565b34801561013457600080fd5b506100b5670de0b6b3a764000081565b34801561015057600080fd5b50610099610340565b34801561016557600080fd5b506003546101739060ff1681565b60405190151581526020016100bf565b34801561018f57600080fd5b506000546101a3906001600160a01b031681565b6040516001600160a01b0390911681526020016100bf565b6001600160a01b038116600090815260016020526040812080548492906101e3908490610432565b909155505060405182906001600160a01b038316907febedb8b3c678666e7f36970bc8f57abf6d8fa2e828c0da91ea5b75bf68ed101a90600090a35050565b600060025442106102335750600090565b42600254610241919061044a565b905090565b600034116102675760405163559ad59d60e11b815260040160405180910390fd5b61027134336101bb565b565b60035460ff1661029657604051630a57406960e01b815260040160405180910390fd5b33600090815260016020526040902054806102c457604051631c492dd560e01b815260040160405180910390fd5b336000818152600160205260408082208290555190919083908381818185875af1925050503d8060008114610315576040519150601f19603f3d011682016040523d82523d6000602084013e61031a565b606091505b505090508061033c5760405163b1e8229160e01b815260040160405180910390fd5b5050565b60025442101561036357604051631488392d60e01b815260040160405180910390fd5b670de0b6b3a764000047106103f55760008054906101000a90046001600160a01b03166001600160a01b031663522e1177476040518263ffffffff1660e01b81526004016000604051808303818588803b1580156103c057600080fd5b505af11580156103d4573d6000803e3d6000fd5b50506003805460ff19169055506103f09150429050601e610432565b600255565b6003805460ff19166001179055565b600060208284031215610415578081fd5b81356001600160a01b038116811461042b578182fd5b9392505050565b6000821982111561044557610445610461565b500190565b60008282101561045c5761045c610461565b500390565b634e487b7160e01b600052601160045260246000fdfea2646970667358221220a8742c8d3a44e0c2c4b5822108b3df070ee8329db019201f4b876d656490818c64736f6c63430008040033",
  "devdoc": {
    "kind": "dev",
    "methods": {},
    "version": 1
  },
  "userdoc": {
    "kind": "user",
    "methods": {},
    "version": 1
  },
  "storageLayout": {
    "storage": [
      {
        "astId": 35,
        "contract": "contracts/Staker.sol:Staker",
        "label": "exampleExternalContract",
        "offset": 0,
        "slot": "0",
        "type": "t_contract(ExampleExternalContract)12"
      },
      {
        "astId": 39,
        "contract": "contracts/Staker.sol:Staker",
        "label": "balances",
        "offset": 0,
        "slot": "1",
        "type": "t_mapping(t_address,t_uint256)"
      },
      {
        "astId": 44,
        "contract": "contracts/Staker.sol:Staker",
        "label": "deadline",
        "offset": 0,
        "slot": "2",
        "type": "t_uint256"
      },
      {
        "astId": 46,
        "contract": "contracts/Staker.sol:Staker",
        "label": "openForWithdraw",
        "offset": 0,
        "slot": "3",
        "type": "t_bool"
      }
    ],
    "types": {
      "t_address": {
        "encoding": "inplace",
        "label": "address",
        "numberOfBytes": "20"
      },
      "t_bool": {
        "encoding": "inplace",
        "label": "bool",
        "numberOfBytes": "1"
      },
      "t_contract(ExampleExternalContract)12": {
        "encoding": "inplace",
        "label": "contract ExampleExternalContract",
        "numberOfBytes": "20"
      },
      "t_mapping(t_address,t_uint256)": {
        "encoding": "mapping",
        "key": "t_address",
        "label": "mapping(address => uint256)",
        "numberOfBytes": "32",
        "value": "t_uint256"
      },
      "t_uint256": {
        "encoding": "inplace",
        "label": "uint256",
        "numberOfBytes": "32"
      }
    }
  }
}